:020000022000DC
:10700000000004205D730200457302004773020014
:10701000497302004B7302004D7302000000000030
:107020000000000000000000000000004F7302009C
:1070300051730200000000005373020055730200F8
:107040007596020057730200119B020057730200ED
:1070500057730200577302009199020057730200A0
:1070600057730200577302005773020057730200F0
:1070700057730200577302005773020057730200E0
:1070800057730200A586020057730200577302006F
:10709000577302005773020011BF020057730200BA
:1070A00057730200577302005773020057730200B0
:1070B0005773020057730200000000000000000038
:1070C0005773020057730200577302005773020090
:1070D0005773020057730200577302005773020080
:1070E000577302005773020057730200000000003C
:1070F00000000000577302000000000057730200F8
:10710000000000000000000000000000000000007F
:10711000000000000000000000000000000000006F
:10712000000000000000000000000000000000005F
:10713000000000000000000000000000000000004F
:10714000000000000000000000000000000000003F
:10715000000000000000000000000000000000002F
:10716000000000000000000000000000000000001F
:10717000000000000000000000000000000000000F
:1071800000000000000000000000000000000000FF
:1071900000000000000000000000000000000000EF
:1071A00000000000000000000000000000000000DF
:1071B00000000000000000000000000000000000CF
:1071C00000000000000000000000000000000000BF
:1071D00000000000000000000000000000000000AF
:1071E000000000000000000000000000000000009F
:1071F000000000000000000000000000000000008F
:10720000314932480A1A02D0072291438D4630494B
:1072100030480A1A06D00722914381F309880222D6
:1072200082F314882C482D492D4A00F03CF82D4853
:107230002D492E4A00F037F82D482E492E4A00F0ED
:1072400032F82E482E492F4A00F02DF82E482F49AB
:107250002F4A00F028F82F482F49304A00F023F831
:107260002F483049304A00F01EF83048304900229B
:1072700000F024F82F483049002200F01FF82F4A70
:1072800090471F481F49884205D00268043003B464
:10729000904703BCF7E700208646EC46002000211B
:1072A000274A9047FEE7884207D0521A05D0037854
:1072B00001300B700131013AF9D17047884202D098
:1072C00002700130FAE770470000042000E003205C
:1072D000000004200000042074D50200C81D002016
:1072E000F4230020B8730200B87302006EC40200D9
:1072F00074D50200C81D0020C81D0020B4C50200BE
:10730000B4C50200B4C50200B4C50200B4C5020091
:10731000B4C50200B4C50200B4C5020072D50200B3
:10732000A0DB0200F4230020F4230020F42300203B
:10733000942E0020942E0020942E002085730200AD
:10734000F5A70200FEE7FEE7FEE7FEE7FEE7FEE741
:10735000FEE7FEE7FEE7FEE700F002B8FFF7FCBF3E
:107360000F484FF00701884385460E4880470E4876
:10737000016841F470010160BFF34F8FBFF36F8F5D
:10738000FFF73EBF09480A490A4A884207D0521A05
:1073900005D0037801300B700131013AF9D1704703
:1073A000000004206191020088ED00E0B4C50200F5
:0873B000C81D0020C81D0020CB
:1073B800F0B595B01D46164608460C4601F020FD6E
:1073C8001A9B0D93CDE9086500252B46082205A9CF
:1073D80020460A958DF82C500C9501F02EFD079B40
:1073E8000293069B03939DF814308DF8115003F017
:1073F8000302012A1DD1BDF81420059DC3F3C20361
:10740800C2F383168DF81030B20008230EA9204667
:1074180001F013FDC5F3952508AB0093324602AB86
:107428000EA9284600F0B6FB204601F0EDFC15B089
:10743800F0BD022AF8D1BDF81650C3F3C203C5F354
:1074480089158DF810300827082D2E4628BF0826E4
:107458003B4632460EA9204601F0EFFCAD1B08ABB7
:1074680002AA31460EA8374400F0F8FB002DEBD1F4
:10747800DAE70000014B01221A707047352400201A
:107488007047000070B5124D06460FCD88B06C46A7
:107498000FC495E80F00002E84E80F004FF0FF336B
:1074A8004FF00602CDE90023CDE90233094A0A4824
:1074B8004FF0EB7308BF00226946069302F05CF8B0
:1074C80008B100F093FD054B1E7008B070BD00BFF9
:1074D800B4C502007D740200C81D0020F4230020FA
:1074E80007B5044B0093044A4023FFF761FF03B03C
:1074F8005DF804FB05750200F523002038B50D4B37
:107508000D4D002018700D4804782D5DD2B21C4630
:1075180065B1043002F0A2FF08B100F067FD084B26
:107528001A7812B12378002BFBD038BD0C3002F04A
:1075380039FDF1E735240020E82A0020C81D002085
:10754800F423002008B50848084A0378D35C3BB107
:10755800043002F0FFFEBDE808400020FFF792BFAC
:107568000C3002F0C3FCF6E7C81D0020E82A002012
:107578000120FFF787BF000008B5FFF7F9FF0448AF
:10758800042100F071FA034B01225A7108BD00BFB3
:10759800A4C50200DC1D0020037813F0040216D0F5
:1075A80003F00303012B03D0022B09D001207047FD
:1075B8000A6800880232C0F3831002440A60F5E7C3
:1075C8000B684288023303EB92130B60EEE7104618
:1075D800704700002DE9F04F87B000230446861C51
:1075E8000DF107000F4615468DF8073000F0E8FE4C
:1075F800404A51683960936803F580735B1A924674
:1076080002F21C4702F5836902F21448B3421AD306
:107618000020002D69D004F00F039B0143F00503FF
:1076280063F30F00DAF80430DAB203321E444AF882
:1076380022009DF80700CAF8046000F0E5FE01206A
:1076480007B0BDE8F08F0121384601F004F948463B
:1076580001F019F9404601F016F9DAF8080002902D
:10766800C0B203300AEB800002A9FFF795FF029B26
:1076780030BBDAB20AEB8202D16803919A1C01335B
:10768800DBB20AEB83030292D3F80CB001F00303D8
:10769800012B22D0022B15D08346404601F0F6F884
:1076A80010B1029BCAF808305946384601F0D3F8A1
:1076B800DAF80830DAF8042003F580739B1AA5E796
:1076C800D8B2CEE7BDF80E30C3F3891303334FEABF
:1076D8001B4B02EB93030293DFE7BDF80C30C3F3B7
:1076E80083134FEA1B4B1344F5E7A40544F0060047
:1076F80098E700BF08250020064B074810B5002270
:107708001A7001F036FB044610B9044801F098FCE1
:10771800204610BD0825002050C5020008C60200FA
:1077280030B50A4C71B10A4A0A49121BD208002323
:107738009A4201D1002030BD31F82350854202D051
:107748000133F5E7034654F83300F4E7B8C4020000
:1077580050C50200C81D0020094B013903EBC000C9
:10776800032909D8DFE801F00A020406042070475B
:1077780000797047407970470020704702207047B1
:10778800B8C40200034BD3E90130C31A5842584128
:10779800704700BF082500202DE9F04186B0FFF7AB
:1077A800F1FF0546002840F0E680744CC4F8180440
:1077B800BFF34F8FA3680293DBB2033304EB83005C
:1077C80002A9FFF7E9FE029B18B1D4F81824002A91
:1077D80055D0DAB2991C013304EB8202DBB204EB18
:1077E8008303D268DB68049302F00303022B03923D
:1077F80002914FD1BDF80E306148C3F38917502F5D
:107808003E4628BF502666F38F1306F10801ADF8EF
:107818000E3001F0C6FA0546002800F0978001F006
:10782800EFFA002303A90822284601F0FCFA02997E
:10783800CB43DBB20133C9B20331B6EB830F4FEA56
:10784800830804EB810122D908234246A6EB0806E7
:10785800284601F0E8FAF6B24A4908F10803324628
:10786800284601F0E0FA029B033703EB97070297DB
:10787800D4F81834002B41D1D4F8106451E0626870
:107888009A4299D8A260284606B0BDE8F08108233C
:107898003246E5E7012B59D1BDF80C303848C3F31F
:1078A8008311062928BF062161F389130231890053
:1078B800ADF80C3001F075FA0546002846D001F005
:1078C8009FFA0023082203A9284601F0ACFA0026F3
:1078D800BDF80C20C2F38312B300964203F10803EB
:1078E800C6D202994A1CC9B20331029204EB810143
:1078F8000422284601F097FA0136E9E7284601F004
:1079080083FAFFF73FFF80F00100C5B2BBE7F368D9
:107918005B7923B1336829461B6830469847F3687A
:107928001E68002EF3D1284601F06EFA0DF107000B
:107938008DF8076000F044FDD4F818340BB9029BA9
:10794800A3609DF8070000F05FFDDAE7D4F8104463
:1079580054B90D4B0D480E49C01AC008000440F038
:10796800020000F05DF8CCE7236820469B68984742
:10797800E3681C68ECE7002585E700BF08250020C0
:1079880050C5020014250020B8C40200E0C402005B
:10799800F1C502002DE9F34704460E46924601A9B7
:1079A800012218469946FFF715FE1B4F10B3019D9B
:1079B8004FF00008AA1CC84508EB020123D117485C
:1079C800002100F019FF80F31000000440EA144081
:1079D800E4006B1C04F03804DBB2EDB244F001049F
:1079E80007EB8303033544EA881444EA8624D86005
:1079F80047F825403B781BB1FFF7CEFE0028FBD1A6
:107A080002B0BDE8F087C9B207EB81015AF8283007
:107A1800CB6008F10108CEE70825002024290020C2
:107A280000231A46FFF7B6BF07B50123019201AA42
:107A3800FFF7B0FF03B05DF804FB07B5CDE90023FD
:107A480002236A46FFF7A6FF03B05DF804FB1FB5E3
:107A5800CDE90123069B039301AA0323FFF79AFFAD
:107A680005B05DF804FB000030B50F49D1F81024CB
:107A780003460020144634B9DC6820714AB9C1F8BD
:107A88001034226030BDE4682579854206D0246828
:107A9800F1E7D268116821601360F3E701300A2822
:107AA800E8D14FF0FF30EDE708250020084A38B547
:107AB8000123D2F8104413701D4604B938BDE36899
:107AC8005D71236820465B689847E3681C68F4E7A3
:107AD8000825002007B503460846197A052911D05C
:107AE8005B7A2BB1094A0A49019000F032FF0198EC
:107AF8000849019000F02DFF019803B05DF804EBF0
:107B080000F01CBF002AF8D0F2E700BF14C602003C
:107B180019C6020039C6020030B5C38885B00446CC
:107B28000D4633B1144A00921449154A284600F00C
:107B380010FF217A05291DD0637A4BB1A088FFF781
:107B48000BFE104B104953F82020284600F001FF87
:107B5800227A0E4BA08853F8222003920021FFF7C7
:107B6800DFFD039A0A490346284605B0BDE83040C0
:107B780000F0EFBE05B030BD14C6020024C60200F6
:107B88001CC60200A0C6020019C60200C4C6020034
:107B98003CC602002DE9F04385B01F460C9D00232A
:107BA80095F80C902B7306460C46904629463846A5
:107BB800FFF7B2FFB8F1060F09D8DFE808F00412A2
:107BC800181F283340003146284600F0C2FE002224
:107BD80029463846FFF77EFF85F80C9005B0BDE8CA
:107BE800F08322683146284600F0B3FEEFE7D4E977
:107BF80000233146284600F0ACFEE8E7A36800936E
:107C08003146D4E90023284600F0A3FEDFE7E36805
:107C18000193A36800933146D4E90023284600F075
:107C280098FED4E723690293E3680193A36800935D
:107C38003146D4E90023284600F08BFEC7E7636984
:107C4800039323690293E3680193A3680093314681
:107C5800D4E90023284600F07CFEB8E708292DE97E
:107C6800F74F80460E4617461C463CD8002593F829
:107C78000C901D7319461046FFF74EFFDFF888A0D9
:107C8800DFF888B0AE4231D918F8052059462046A9
:107C980000F05FFE0135082DF4D11949194DDFF8C0
:107CA80070A0204600F055FE4FF0000B5E4522D92B
:107CB80018F80B207E2A05D81046019204F0E8FA3D
:107CC800019A00B92E225146204600F042FE0BF1DF
:107CD800010BBBF1080FE9D1012221463846FFF715
:107CE800F9FE84F80C9003B0BDE8F08F51462046A9
:107CF80000F02FFECEE72946204600F02AFEE6E7F0
:107D080050C602004EC602004CC6020046C602001B
:107D180052C60200C30710B507D4F023054A40082D
:107D2800145C23401943115410BD0901C9B20F2333
:107D3800F4E700BFF029002030B5094B1C78094B47
:107D4800196800239C4202DC0022104630BD11F85D
:107D58003350854201EBC302F7D00133F2E700BF8D
:107D6800C0290020102A002013B504460191FFF70E
:107D7800E3FF38B143682BB10199204602B0BDE852
:107D88001040184702B010BD034B04481968002280
:107D9800490800F02ABA00BFC4290020C8290020D9
:107DA80010B5C0B2FFF7C8FF0446007801F0DEFD49
:107DB80063785A1E53425341834208D1044BD3E996
:107DC8000023134303D1BDE81040FFF7DDBF10BD0A
:107DD800E829002037B54308354AD35CC2074CBFB1
:107DE8001B0903F00F0304460D46042B35D8DFE8C2
:107DF80003F003252C383C0079B30121FFF78AFFF3
:107E080000230DF107008DF8073000F0D9FA0120A2
:107E1800A4F12003C4F12001264A20FA01F100FA56
:107E280003F30B43A040D2E9004120430B43C2E9CE
:107E380000039DF8070000F0E7FA0EE0002918BFDC
:107E480002212046FFF766FF07E041B10321FFF753
:107E580061FF01212046FFF787FF03B030BD0121F4
:107E6800EFE70029F9D10421EBE709B10321E8E79D
:107E7800FFF750FF29462046FFF776FF0DF1070070
:107E88008DF8075000F09CFA0120A4F12003C4F1FA
:107E98002001084A20FA01F100FA03F30B43A0403D
:107EA800D2E9004124EA000021EA0303BFE700BF4A
:107EB800F0290020E82900202DE9F041124E134F47
:107EC80000243378A34208DC114BD3E90023134381
:107ED80018D0BDE8F041FFF757BF3D6805EBC4086F
:107EE80015F8340001F042FD98F801305A1E53424B
:107EF8005341181A4142414115F83400FFF76AFF0F
:107F08000134DEE7BDE8F081C0290020102A0020F6
:107F1800E8290020092AF7B505460C4616463CD93B
:107F280001F054FCD8B11E4B1E481D601E4B1F4F5C
:107F38001C701F4B002120221E6004F00AFA1D4B02
:107F480000200021C3E90001013CE4B20326FF2C14
:107F58000BD1194A1948002100F03CF903E001F05F
:107F6800EFFB0028DFD003B0F0BD9DF8063015F810
:107F780034008DF8046005EBC40223F007038DF884
:107F8800063001A993788DF805303A4601F028FCAF
:107F9800013CE4B20028DAD0E5E70720E3E700BFB8
:107FA800102A0020F0290020C0290020A97D020005
:107FB800C4290020E8290020C17E0200E4C602008E
:107FC80070B5084D084E00242B789C4201D3002040
:107FD80070BD3368012113F8340001F07DFC0134D1
:107FE800F2E700BFC0290020102A00201FB5002199
:107FF800039001AA44F20100CDE9011100F004F850
:1080080005B05DF804FB000010B572B6FFF74EFD31
:10801800FFF7C2FB0028FBD1104B114C1149E41AA1
:10802800E408240444F00100FFF7FAFC0E4B1B6837
:10803800DB0700D500BE0D4944F00200FFF7F0FC55
:10804800BFF34F8F0A490B4BCA6802F4E06213432F
:10805800CB60BFF34F8F00BFFDE700BFB8C402007D
:10806800E0C40200E8C60200F0ED00E0F4C6020039
:1080780000ED00E00400FA05D0E90223D1E902018D
:10808800994208BF90422CBF012000207047000091
:1080980008B50B4800F0EBFA0A4B0B49D3E900236B
:1080A8001218D1E9000143F100038B4208BF824254
:1080B80003D212F1807243F100031046194608BD3D
:1080C800E41D0020182A0020902A002037B5054614
:1080D8000C460A4801A900F0FEFA60B10570446038
:1080E80001A9064800F021FB18B1054800F0C4FAC0
:1080F800002003B030BD0420FBE700BF7C2A00202D
:10810800E41D002038B5184B1B78044613B9002528
:10811800284638BD0028FAD0037F03F0FF05002B5E
:10812800F5D0FFF7B5FFD4E90223994208BF904282
:1081380014D3236903B92377D4E905309847216913
:108148000029E4D0237F03F0FF05002BDFD0D4E91A
:108158000223521843F10003C4E9022303482146CD
:1081680000F08DFFD4E700BF202A002010C70200CE
:1081780013B5114B1149186801900823104858226B
:1081880000F096FA044698B90E4A0F4801A900F083
:108198005FF9044660B90C48012100F04BFA01234D
:1081A8000A4A0948194600F0ADF9094B01221A702C
:1081B800204602B010BD00BF0CC70200242A0020D0
:1081C8007C2A002031820200E41D0020FFFF7F008E
:1081D800202A00203AB103685A614A1E514251418F
:1081E8001961002070470720704738B5037F04469F
:1081F8000D4683B98261FFF74BFF2369401941F1AE
:108208000001C4E9020103B1256121460020BDE84F
:108218003840FFF75BBF002038BD0000014800F080
:1082280026BA00BFE41D00202DE9F04F85B0804636
:1082380000F008FA40B15A4AD2E9003113F18073CC
:1082480041F10001C2E900310021404600F009FA7D
:1082580038B1544E336823B13068FFF753FF002319
:1082680033600121404600F0FCF920B1FFF710FF10
:108278004D4BC3E900014D484A4F4D4EDFF8389148
:1082880003A900F062FA002845D1DFF82491454E91
:10829800DFF828A1484600F008FF3368002875D0A9
:1082A8007BB13368D0E90201D3E90223994208BFC0
:1082B80090422DD233681B7F1BB13168484600F0CD
:1082C800DEFE484600F0EBFED0E902B30746019314
:1082D800FFF7DEFE019BBBEB000463EB0105012CFD
:1082E80075F1000345DBB4F5350F40D3FFF796FF72
:1082F800304A02444FF496030021504600F022F918
:1083080000283ED1336813B9404600F0F3F83760CF
:1083180005B0BDE8F08F0378012B1DD0022B09D1E1
:108328004FF0000A304600F0BAFE002834D080F83A
:108338001CA0F7E73BB941680B7F23B901230B77F2
:10834800304600F09CFE03A9184800F029FA03A95A
:10835800164800F0FAF996E741683B68994202D15D
:1083680000233B60EFE7304600F0A2FEEBE7BA6877
:10837800C0E70021504600F06AF93846FFF7C2FE10
:1083880001E00D28F9D00023336083E7002BBFD12B
:10839800404600F0B3F8BBE7012389F80030D2E784
:1083A800182A0020982A0020902A00207C2A0020E1
:1083B80010C70200FFFFB400202A0020E41D00209F
:1083C80070B5EFF3108672B60C4A946801239CB915
:1083D80093600B4B0B4DD3F8801029401160C3F804
:1083E8008050D3F8841051604FF0FF32C3F88420D6
:1083F800047006B962B670BD0370FAE79C2A0020C3
:1084080000E100E0FC06FFBD084B9A6810B55AB1C0
:1084180050B9EFF3108172B6054A1C6814605C68A5
:108428005460986001B962B610BD00BF9C2A002054
:1084380000E100E0435882B03BB100234350435869
:108448000193019B012002B070471846FBE700002A
:10845800F8B5204B4479204D43F824201F4A204B7F
:1084680005EBC4049B1A2279DB081B0432B143F0E4
:1084780002001C49FFF7D4FA0820F8BD02680C88EE
:10848800C2F8084590F904608A7804795201002EF0
:10849800D2B219DB14498F1987F800230122760913
:1084A80004F01F0402FA04F441F82640427905EB6F
:1084B800C201012445F832000C7143F003000B4956
:1084C800FFF7AEFA0020D8E7094904F00F040A556F
:1084D800ECE700BFB02A0020A82A0020B8C4020098
:1084E800F0C402001CC7020000E100E03EC7020021
:1084F80014ED00E0036801221A6070470368012246
:108508005A60704773B501F15005AD000068ADB20F
:108518004FF480348C400026C0F80843C0F8484324
:10852800465101F5A8714559019522F07F42019DF8
:1085380040F82120C0F844430BB1C0F8044302B00E
:1085480070BD00002DE9F74F0D4622F07F44026808
:108558004FF4803705F150068F408046B60002EB95
:108568008500C2F84873B6B2C2F80873D2F8041589
:1085780099464FF0000BD0F84035C0F8401542F846
:1085880006B05B1A9259009223F07F43012B009AA0
:108598004FEA850A0CD1264B4FF4806043F0010363
:1085A8009847D8F8003043F806B09B590193019BCF
:1085B800D8F80010D1F80465C1F84473A31B23F060
:1085C8007F43012B1CD11A4B05F5A875013443F0E4
:1085D800010341F825404FF480609847D8F80030EF
:1085E800D3F804359E4209D1D8F800300020C3F8EA
:1085F8004473C3F8047303B0BDE8F08F0D20FAE7A5
:108608008A44C9F1FF13CAF84045D1F80405221A73
:10861800013A22F07F4203F57F439342EED3002ACA
:10862800E2D10134CAF84045D1F804359842DAE776
:1086380050C7020003680222C3F8442309B1C3F8F3
:108648000423704700684FF48271FFF7F3BE4FF4BC
:10865800803303FA01F10368C3F84813C3F8081319
:10866800704750318900006889B2FFF7E3BE03689C
:10867800D3F804057047000090F90430002B09DB9B
:108688005A09012103F01F0301FA03F3403202499A
:1086980041F82230704700BF00E100E0024B034A76
:1086A8001B681068184700BFB02A0020A82A0020BD
:1086B80010B561B1B2FBF3F403FB1424A4B244B9BE
:1086C800C0E9001484608281C381204610BD0E2059
:1086D800FCE70920FAE737B550E8013F9DB2C489A5
:1086E80025448489A54228BF2D1B0489A54202BFC1
:1086F800BFF32F8F002207E0C5EA030540E80154C5
:10870800002CE9D14FF001028DF803200193019B61
:108718009DF803200B6002F0FF0322B10B8800686C
:10872800184403B030BD1846FBE70A884B889A42C4
:1087380009D150E8012FC2EA024240E80123002B88
:10874800F7D1012070470020704737B550E8023F45
:108758001FFAA3F5C488A54202BFBFF32F8F0022DA
:108768000DE0C48925448489A54228BF2D1BC3EA8E
:10877800054540E80254002CE8D14FF001028DF87D
:1087880003200193019B9DF803200B6002F0FF0377
:1087980022B14B880068184403B030BD1846FBE787
:1087A8000A884B889A4209D150E8022FC2EA22422D
:1087B80040E80223002BF7D10120704700207047C2
:1087C80001F01F024B090121914000EB830000F0EA
:1087D8001EB801F01F0301229A404B0900EB8300E9
:1087E800D14300F02CB84B0901F01F0150F82300C9
:1087F800C84000F00100704710B5034653E8000F69
:108808000A4643E8002494F0000FF7D110BD10B5D4
:10881800034653E8002F42EA010043E8000494F0BD
:10882800000FF6D110BD10B5034653E8000F00EA5B
:10883800010243E8002494F0000FF6D110BD10B5F2
:10884800034653E8002F02EA010043E8000494F0CD
:10885800000FF6D110BD10B5034653E8002F02EB08
:10886800010043E8000494F0000FF6D110BD10B5E4
:10887800034653E8002FA2EB010043E8000494F0FC
:10888800000FF6D110BD0121FFF7C1BF0021FFF78E
:10889800CABF10B590B1D0E9012301689B1ADBB2B9
:1088A8000A60013BDBB2FF2B026802D10020107185
:1088B80010BD11684C1C14600B70F2E70E20F7E72E
:1088C80037B5054600240DF107008DF80740FFF77E
:1088D80077FD2A686B68116899420ED9481E1060A6
:1088E80011F8014CEB68298A01FB0434AB68117953
:1088F8001B1ADBB2994238BF13719DF80700FFF7C6
:1089080083FD204603B030BD37B5054600230DF181
:1089180007000C468DF80730FFF752FD2A681368E8
:10892800591C1160E968641A298AB4FBF1F41C70B7
:108938009DF80700FFF768FD03B030BD826810B5E9
:1089480004462AB143690168006998470023A36077
:1089580010BD0EB403B5039921B104AB01AA01936C
:1089680000F076F802B05DF804EB03B070470A290E
:1089780038B504460D4602D10D21FFF7F8FFA3686C
:108988002268591CA160D554D4E901329A4204D313
:108998002046BDE83840FFF7D1BF38BD2DE9F84F74
:1089A8009846DDE90A43154682460F460A464FF0C7
:1089B8000109AA420FD2C14538BFC14613F0010BC5
:1089C80001D16CB900240126B8F1010F1BD908F1B7
:1089D800FF386E43F8E709F10109B2FBF5F2E8E761
:1089E8009B070ED5B8F1000F0CBF30262026A145F5
:1089F800E9D2013C31465046FFF7B9FF002CF6D1C9
:108A0800E0E72026F3E7B7FBF6F39D42E1D9DFF86C
:108A18003C80B7FBF6F3504618F8031006FB1377B3
:108A2800FFF7A5FF3346AB42B6FBF5F6F1D2BBF133
:108A3800000F02D00CB1A14501D3BDE8F88F202169
:108A48005046013CFFF793FFF4E700BF56C702000A
:108A58002DE9F74F054617468846002900F0428160
:108A680018F8011B49B92B7B002B00F03B812846E5
:108A780003B0BDE8F04FFFF761BF252940F0B7808C
:108A8800002698F800302D2B424608F1010823D023
:108A9800302B24D02B2B25D000242A2B02F10101C6
:108AA80023D13B681A1D1B683A601C440A46137898
:108AB8002E2B26D101324FF0000A104610F8011B68
:108AC800A1F1300CBCF1090F1DD80A2303FB0A13CE
:108AD800A3F1300A0246F0E746F00106D1E746F076
:108AE8000206CEE746F00406CBE711F8013CA3F1F5
:108AF80030000928DBD80A2202FB0434303C0A463D
:108B0800CBE74FF0000A12F8011B01F0FB006828C0
:108B18009046F8D0782909D86F290CD8632962D0F3
:108B280022D8252963D0582900F0888098F8003089
:108B3800002B95D197E770390829F7D801A353F886
:108B480021F000BFC78C0200358B0200358B020074
:108B5800558C0200358B0200338C0200358B0200E5
:108B6800358B0200458C0200642901D06929DDD1CA
:108B78003A68D2F80090111D89EAE9723960A2EBCF
:108B8800E9724FF0010B092A35DCD34538BFD346CB
:108B98002CB1B9F1000F01DB720700D5013CB30716
:108BA80002D5BAF1000F03D0F00701D44CBB002462
:108BB800B9F1000F2DDAC9F100092D212846FFF778
:108BC800D6FE06F00302022A04D1BAF1000F01D141
:108BD8001CBB0024CDE9004653460A2249462846D4
:108BE800FFF7DCFEA2E73B681A1D19783A602846B1
:108BF800FFF7BDFE9AE70A230BF1010BB2FBF3F274
:108C0800C1E7A345D4D220212846013CFFF7AFFE97
:108C1800CCE77107D5D52B21D0E7A345DAD230218F
:108C28002846013CFFF7A3FED2E73968CDE90046A4
:108C38000A1D3A6053460A220968D0E739680A1DB6
:108C48003A60CDE9004653461022F5E73B681A1D05
:108C58003A6016F00106D3F8009028D1B9F1000F58
:108C680003D0484603F0CFFB0646B44200D904BB04
:108C780009F1FF3919F8011F00293FF457AF2846B9
:108C8800FFF775FEF6E728460136FFF770FE19F87C
:108C980006100029F7D1A642BFF448AF002C3FF4D4
:108CA80045AF20212846013CFFF761FEF3E7002687
:108CB800EDE720212846013CFFF759FED5E73B6840
:108CC8001A1D3A60302128461C68FFF750FE7821AB
:108CD8002846FFF74CFE00220823CDE90032214642
:108CE80010227CE703B0BDE8F08F00BF2DE9F84FF4
:108CF800B0F806A04579D2F800B09DF828900AFB94
:108D080005F5043D88460BEB0301A94203F1040471
:108D180088BFA5EB030BB4FBFAF607460AFB16441B
:108D2800C2F800B04EB9AAEB04055D4528BF5D4600
:108D3800BBF1000F04D1BDE8F88F3F68013EF1E7B1
:108D4800043408EB06003C442A46B9F1000F0DD064
:108D58002146ABEB050B03F0D3FADA452E443F6806
:108D680055464FF0000428BF5D46E1E7014620461E
:108D7800EFE7FFF78EBDF8B546790146721E054646
:108D8800002393422D6803D30024A64202D8F8BDDD
:108D98000133F6E70F682846FFF7B6FD0134394678
:108DA800F3E72DE9F843068ACD1C0746FFF788FD4F
:108DB800043E35440446B5FBF6F5F0B14FF4807334
:108DC800EDB28380C680013D076081464FF0000800
:108DD800A84512D23846FFF773FD064648B16379B5
:108DE8000133637108F10108C9F800000760814682
:108DF800EEE72046FFF7BFFF34462046BDE8F8837C
:108E080001210430FFF727BD10B5012104460430C5
:108E1800FFF72DFD10F0FF0F04D12046BDE81040EC
:108E2800FFF7A9BF10BD1FB503920022009203AA45
:108E3800FFF75CFF05B05DF804FB1FB50392012244
:108E4800009203AAFFF752FF05B05DF804FB41DF6B
:108E580070470000064B10B500241C70054B1C60C1
:108E6800BFF35F8F0449054800F0F3F8204610BDB2
:108E7800BC2A0020C02A002070C70200B42A0020A3
:108E880007B500230DF107008DF80730FFF798FAB2
:108E9800F1EE103A23F09F03E1EE103ABFF35F8F33
:108EA800094B4022C3F884219DF80700FFF7ACFA6C
:108EB80003F010F820B1FFF7CAFF03B05DF804FB18
:108EC80020BF40BF20BFF8E700E100E00268136858
:108ED8005268934291BFD01A80680130801888BFC9
:108EE800C01A7047036881681A685B688B4234BF90
:108EF80001330023D31A584258417047F7B500236D
:108F080004460DF107000D468DF80730FFF758FAB3
:108F18002046FFF7E7FF10B1237C002B3CD12268E5
:108F2800A66853685168B14234BF013100215160CD
:108F380030B11168A068814234BF0131002111604D
:108F4800E2686068511E072920D8DFE801F00410A4
:108F58001F141F1F1F182A78C2542046FFF7B6FF98
:108F680023689A68824200D29860002415E02A8813
:108F780020F81320F1E72A6840F82320EDE7D5E927
:108F8800006700EBC300C0E90067E6E7294602FB7B
:108F9800030003F0B5F9E0E704249DF80700FFF7A4
:108FA80033FA204603B0F0BD036818685B68C31A3B
:108FB80058425841704773B5002305460DF1070024
:108FC8000C4616468DF80730FFF7FAF92846FFF7E2
:108FD800EBFF002832D129680B682EB90A68A86807
:108FE800824238BF561C0E60EA686968501E07281E
:108FF8001ED8DFE800F0040E1D121D1D1D16CB5CE7
:10900800237000249DF80700FFF7FEF9204602B000
:1090180070BD31F813302380F3E751F82330236013
:10902800EFE701EBC301D1E90023C4E90023E8E736
:1090380003FB0211204603F063F9E2E70524E1E7A8
:10904800836800225A60C3E904229A60DA601A60D1
:1090580070470B684A684360934208BF0023016069
:1090680008BF43607047436843B10268916852681B
:109078000B449342436004BF00234360704770B5BC
:10908800446806460D46206818B1B36829469847D3
:1090980018B923682B60256070BD2468F3E743681E
:1090A800186808B102681A60704743681868704702
:1090B8004368186800B97047884203D102681A608B
:1090C8000120704703460068F4E7000010B50D4919
:1090D800A1F59472914201D800200FE08C1AE30F99
:1090E80003EBE4035B1002EBC30452F83330834212
:1090F80005D802D204F10802ECE7606810BD2146E9
:10910800E8E700BF7CCC020008B5FFF7DFFF024BA1
:10911800002808BF184608BD3FCB0200034B18685B
:10912800A0F1080358425841704700BF30010010B1
:10913800064B1B68082B06D1054B1B68032B02D86E
:10914800044AD05C70470020704700BF300100100F
:10915800340100107CCC020008B5FFF7DFFF40B1F6
:109168004FF080430022C3F80C21C3F81021C3F844
:109178003825FFF7D3FF002846D04FF080525E4BCA
:10918800D2F80414C3F82015D2F80814C3F824152B
:10919800D2F80C14C3F82815D2F81014C3F82C15FB
:1091A800D2F81414C3F83015D2F81814C3F83415CB
:1091B800D2F81C14C3F84015D2F82014C3F844158B
:1091C800D2F82414C3F84815D2F82814C3F84C155B
:1091D800D2F82C14C3F85015D2F83014C3F854152B
:1091E800D2F83414C3F86015D2F83814C3F86415EB
:1091F800D2F83C14C3F86815D2F84014C3F86C15BB
:10920800D2F84424C3F87025FFF792FF10B13B4B06
:109218003B4A1A60FFF78CFF18B13A4BFB22C3F8A0
:109228001825FFF785FF48B13749384B0A681B688E
:1092380022F00F0203F00F0313430B60FFF778FFD0
:1092480018B1334B4FF400721A60FFF767FF48B14B
:109258004FF08043D3F80024D20744BF6FF00102D7
:10926800C3F800242B4AD2F8883043F47003C2F8BC
:109278008830BFF34F8FBFF36F8F4FF01023D3F8B1
:109288000022002A03DBD3F80432002B2FDA224B0A
:109298000122C3F80425D3F80024002AFBD04FF09C
:1092A80010221221C2F80012D3F80024002AFBD0A1
:1092B8004FF010231222C3F80422174B1A46D3F892
:1092C80000140029FBD00021C3F80415D2F800349B
:1092D800002BFBD0BFF34F8F0E49104BCA6802F426
:1092E800E0621343CB60BFF34F8F00BFFDE70C4B29
:1092F8000C4A1A6008BD00BF00C000408C560040F0
:109308004881030000F00040E40E004058020010BD
:109318004096024000ED00E000E001400400FA053C
:10932800EC1D00200090D003074B1B5C1F2B86BF51
:10933800064903F01F034FF0A041012202FA03F38C
:10934800C1F80C35704700BF80CC02000003005004
:10935800074B1B5C1F2B86BF064903F01F034FF00A
:10936800A041012202FA03F3C1F80835704700BF93
:1093780080CC02000003005008B50020FFF7E8FF8A
:109388000120FFF7E5FF0220FFF7E2FFBDE80840F4
:109398000320FFF7DDBFC20710B504460CD54FF018
:1093A800A0430322C3F83427C3F83827C3F83C275F
:1093B800C3F84027FFF7E0FFA3070AD54FF0A04303
:1093C8000C22C3F82C27C3F83027C3F86027C3F84A
:1093D800642710BD38B5074C051E04F1080318BFF3
:1093E8001C4623682BB11A6822605B682846984798
:1093F800F7E738BDCC2A002020B9054B01225A7066
:10940800FFF7E8BF012802D1014A9070F8E77047DA
:10941800C42A002020B9034B01225A70FFF7DABF93
:10942800704700BFC42A002038B50E4C2378B3B962
:109438000D486360A3602361E36000F0E5F805462A
:1094480002F048FD08B900F0EBF801232370074B40
:10945800D3F800340BB10123A370284638BD852505
:10946800F5E700BFC42A0020019402000000014073
:1094780037B50D4C00230DF107008DF80730FEF7C6
:109488009FFFE368013BE360E36833B9074BD3F818
:10949800005415B900F0D6F8A5709DF80700FEF73E
:1094A800B3FF03B030BD00BFC42A00200000014054
:1094B800012813B50CD0032820D038B9124B01224B
:1094C800C3F88020BFF34F8FBFF36F8F02B010BD7A
:1094D8000E4C00230DF107008DF80730FEF770FFE2
:1094E80023780BB9FFF7A0FFE3689DF80700013365
:1094F800E3600123A370FEF787FFE7E700F090F829
:10950800FFF7B6FFE2E700BF00E100E0C42A002051
:109518001FB503788DF800304368019383688DF890
:109528000830C368054A0393054B684653F8213051
:1095380052F82110984705B05DF804FBD82A00209E
:10954800E02A00201FB503788DF8003043680193A6
:1095580083688DF80830C368054A0393054B68464D
:1095680053F8213052F82110984705B05DF804FBF4
:10957800D82A0020E02A0020F0B5194B90F800C046
:10958800DFF86CE043F82C20164B16460A6943F8BE
:109598002C204B7F0EF80C300C4607460FCC89B0B8
:1095A8006D460FC594E80F0085E80F001EF80C30D3
:1095B800CDF810C04BB1002E0B4A694608BF3246A1
:1095C800381D00F0E9FD09B0F0BD002E074A6946D4
:1095D80008BF324607F10C0000F0B6FBF3E700BF06
:1095E800E02A0020D82A0020199502004D95020093
:1095F800E82A002000F18040002382B0036003685D
:109608000193019B02B07047044A137923B90121E1
:10961800106091801846704785207047EC2A00201A
:10962800074B1A68D20704D4C02283F8002301220A
:109638001A604FF080430122C3F81825704700BF15
:1096480000E100E04FF0804208B50223C2F8083379
:109658004FF48270FFF7CEFF034B01211960D2F857
:109668001834DB03FBD408BD0C000040124B1B6808
:1096780010B573B14FF48070FFF7BCFF4FF0804313
:109688000122C3F808230D4B587910B95A711B6889
:1096980098470B4B1B6873B14FF48270FFF7AAFF12
:1096A8004FF080430222C3F80823044BBDE8104062
:1096B8001B680120184710BD00010040EC2A00205B
:1096C8000401004000F1804000F5C040002382B052
:1096D800036003680193019B02B0704703681F2B66
:1096E80083BF03F01F03036001484FF0A040704799
:1096F8000003005007B5019001A8FFF7EFFF019B99
:1097080000EB8300D0F8003723F44033C0F800376B
:10971800D0F8003743EA0141C0F8001703B05DF8FC
:1097280004FB0000054B4FF0FF32072843F82020C8
:1097380084BFC01880F85820704700BFF42A002062
:1097480038B51E4C94F86A30ABBB4FF6FF71FF205A
:109758005A09012A14BF4FF0FF320A4603F01F05C9
:10976800EA40D20748BFE21803F1010348BF82F874
:109778003000302BECD10021C8B2FFF7D3FF013104
:109788000C29F9D1062200210D4802F0E2FD0D4B0B
:10979800C02283F8062340221A604FF4BE70FFF7F8
:1097A80091FF094B4FF00042C3F80423012384F8CA
:1097B8006A30002038BD0820FCE700BFF42A0020EA
:1097C800582B002000E100E000600040034B93F8B4
:1097D8006A00003818BF0120704700BFF42A002033
:1097E800F7B53B4E3318054693F93030002B6CDA49
:1097F8008B78C3F34003002B0BBF082400240C20F4
:109808000820844202D1042003B0F0BD56F8247029
:10981800013743D1701946F8242080F8304013B935
:10982800331983F858508B785A0717D4D80737D587
:1098380001A80195FFF752FF019B00EB8300D0F8C8
:10984800003723F00203C0F800372248EA0805F081
:1098580007070123BB40875C3B4383548B780A7816
:1098680013F0020328D0A40004F1804404F5C04496
:109878002D02D4F8103523F44F3323F44073C4F881
:1098880010351204D4F8103505F47C5502F4403232
:1098980015431D43C4F810550020B5E70134B0E75F
:1098A80001A84A780195FFF719FF019B03F5E073BA
:1098B800920040F82320C8E7083C344494F86050EC
:1098C80045EA821284F86020E6E708209CE700BF9A
:1098D800F42A0020582B002073B5224C2618054680
:1098E80096F93020072A1ADD224492F858309B094D
:1098F800032B0FD1019001A8FFF7F0FE019BD0F8D0
:109908001015D94001F0010102312846FFF7F2FE97
:1099180002B070BD012B0CBF02210321F5E7D3B2C1
:10992800072BF5D8930003F1804303F5C043D3F820
:10993800100540F00100C3F8100502F14000800056
:1099480080B2FFF7BFFE0029E2D096F9303054F814
:109958002330002BDCD0012303FA02F2024BC3F8B8
:109968000423D5E7F42A00200060004007B50190E1
:1099780001A8FFF7B3FE019BD0F81005D84000F00E
:10998800010003B05DF804FB2DE9FF470024CDE991
:109998000244584D4FF48072012102F1804303F5CF
:1099A800C04390B21B68012B06D1D5F804330B4293
:1099B80002D0FFF787FE0C430432B2F5907F4FEADE
:1099C8004101EAD14C4B1B68012B11D14FF4BE70F9
:1099D800FFF778FE4FF0A04344F00044D3F8202569
:1099E8000292C3F82025D3F820280392C3F8202830
:1099F80014F0FF0F1AD0414F00250126344210D031
:109A0800AB0003F1804303F5C043D3F81005D3F846
:109A1800101557F8253023B1C1F30141C0F30520D3
:109A280098470135082D4FEA4606E7D1002C59DA48
:109A3800324D334C334E4FF00008012716F9013BE5
:109A48005A1C3CD0C3F3C20104A801445FFA83F94D
:109A580011F8081C03F03F0203F0070307FA03F3A9
:109A680019422CD001A80192FFF738FE019B03F59B
:109A7800E07350F82330C3F3014ABAF1020F1046DD
:109A88000CBF03210221FFF735FE01A80192FFF761
:109A980025FE019B07FA03F3C0F82035AB1893F9AC
:109AA800303055F8233053B14FEA9911032904D0C7
:109AB800BAF1020F19D1012901D11046984708F1CE
:109AC8000108B8F1040FB9D14FF0A043D3F820250D
:109AD8000292C3F82025D4F820350393C4F8203522
:109AE8001343A7D104B0BDE8F087BAF1030FE6D15C
:109AF8000229E1E7006000407C610040F42A002070
:109B080000030050542B0020014B1B68184700BF6E
:109B1800602B00200E4B984237B50C4602D000202F
:109B280003B030BD00230DF107008DF80730FEF7B4
:109B380047FC084B1D7915B901221C601A719DF864
:109B48000700FEF761FC002DE9D01120E8E700BF0F
:109B580000200040602B0020034B984201BF034BBC
:109B680000221A601A71704700200040602B002004
:109B78000023435082B043580193019B02B07047C1
:109B88000A4610B54FF48E71FFF7F2FF136A916819
:109B9800C95C136A01331362C0F81C1510BD8B69C8
:109BA8000A4610B54FF4847123B9FFF7E1FFD0F8E6
:109BB800183510BDFFF7DCFF536AD168D0F81805D7
:109BC800C854536A01335362F3E700001FB50123F9
:109BD8008DF80030044BCDE90110D3E90012684636
:109BE800904705B05DF804FB682B002030B54C4861
:109BF800D0F8043313F4007F85B005464DD0D0F873
:109C08002431002B49D04FF49271FFF7B1FF4FF484
:109C18000173C0F80833434B93F829200AB901228D
:109C280042603F4902228DF80020D1F88024C1F813
:109C3800802403929A690292DA6801920022C3E9A9
:109C480006226846D3E9001290473548D0F81C31FF
:109C58005BB134494A690B6A9A420A464AD991F873
:109C68002830002B46D1FFF78BFF2D48D0F8443120
:109C78008BB14FF4A271FFF77BFF2A4B93F8292091
:109C88000AB1012202609A692AB10022586AD96889
:109C98009A61FFF79BFF05B030BDD5F804335B0729
:109CA800D3D5D5F80831002BCFD01E4C1C482146FF
:109CB800FFF775FF636AA2699A422346C5D1E26934
:109CC800E1684AB12369E3600023606AA261E36145
:109CD8006362FFF77BFFB8E794F829200AB90122ED
:109CE8006A600F4A4FF40170C2F808030022586AEC
:109CF8009A61EEE70A484FF48E71FFF739FF53690E
:109D0800002BB2D051690291002391688DF8003080
:109D1800019153616846D2E900139847A5E700BF4F
:109D280000200040682B00201F2886BF00F01F007D
:109D3800044B4FF0A04300F5E070022243F82020C6
:109D4800704700BF000300502DE9F843614B0579C7
:109D580091462C2202FB0532064692F82A200C4630
:109D68009846002A40F0B1805B490068FFF7D2FEB0
:109D78000746002840F0AB8021684A1C10D01F29F4
:109D880087BF564A01F01F030B464FF0A04201203F
:109D9800984003F5E073C2F80805032042F8230051
:109DA8006068431C0DD01F288BBF00F01F030346BB
:109DB8004A4A4FF0A04203F5E0734FF0000C42F816
:109DC80023C03368A269C3F8242594F814C0627DBF
:109DD800BCF1010F4CEA0202C3F86C25C3F8140564
:109DE800C3F80C152BD1A168481C0DD01F298BBFB7
:109DF80001F01F020A4639484FF0A04002F5E07210
:109E08004FF0000C40F822C0E068421C13D01F2815
:109E180087BF324A00F01F0C84464FF0A0424FF033
:109E2800010E0EFA0CFE0CF5E07CC2F808E54FF0C6
:109E3800030E42F82CE0C3F80805C3F810152C23CC
:109E48006B4308EB0302C2F80490226948F8032028
:109E5800B9F1000F21D03068247F4FF48E71FFF7DD
:109E680087FE4FF4A2713068FFF782FE32681C4B00
:109E7800C2F80433110B42F307326301002ADBB244
:109E88001EDB1848841884F800330123520901F0B6
:109E98001F0103FA01F140F8221033680422C3F8C5
:109EA80000252C2303FB05830022C3E9062283F83F
:109EB80029205A61012283F82A203846BDE8F88310
:109EC800094A01F00F015354E7E70827F5E711277E
:109ED800F3E700BF682B0020F59B02000003005049
:109EE8008000020000E100E014ED00E02DE9F041FF
:109EF80003680479284D0022C3F800252C2202FBB0
:109F0800045201465268A2B1244AC3F808231A0B26
:109F180043F30733002B0CDB02F01F005B0901221F
:109F2800824020331E4840F82320BFF34F8FBFF3F1
:109F38006F8F0B68D3F80C05D3F81485D3F8086530
:109F4800D3F810754FF0FF329042C3F81425C3F8C8
:109F58000C25C3F80825C3F8102501D0FFF7E4FE47
:109F6800B8F1FF3F02D04046FFF7DEFE7A1C02D070
:109F78003846FFF7D9FE731C02D03046FFF7D4FEEF
:109F88000868FFF7E9FD2C2303FB0454002384F839
:109F98002A306360BDE8F081682B0020840202004B
:109FA80000E100E02DE9F047204F90F804904FF0D1
:109FB8002C0808FB097405466669002E34D16261D5
:109FC8000068A16026624FF48E7184F82860FFF75C
:109FD800CFFD2868012383602146FFF7D1FD636820
:109FE800A0468BB92868D4F814A0236A9A4511D8DA
:109FF8002A68D2F81C31002BFBD00123D3602C2314
:10A0080003FB097300225A613046BDE8F08794F8D3
:10A0180028303BB9D0F81C31002BF8D04146FFF767
:10A02800AFFDE2E70F26EAE71126EDE7682B0020EF
:10A038000023435082B043580193019B02B07047FC
:10A048001FB501238DF80030044BCDE90110D3E989
:10A0580000126846904705B05DF804FB942B002079
:10A068001F2886BF00F01F00044B4FF0A04300F5E7
:10A07800E070022243F82020704700BF0003005020
:10A088007FB5434AD2F82461002E60D010464FF4C1
:10A098009271FFF7CDFF02238DF80030D2F880349B
:10A0A800C2F880340393D2F83C350293394BDA680E
:10A0B80001920022C3E906226846D3E900129047BC
:10A0C8003348D0F8443173B14FF4A271FFF7B0FFB1
:10A0D800304B9A693AB10022C3E90622D968D0F810
:10A0E8003C05FFF7ADFF2A48D0F82031ABB14FF45B
:10A0F8009071FFF79DFF0123C360264B5A6962B137
:10A10800D0F84C150291002299688DF80020019131
:10A118005A616846D3E9001290471D48D0F8583173
:10A128009BB14FF4AC71FFF783FF1A4B5A6962B1C8
:10A13800D0F84C150291002299688DF80020019101
:10A148005A616846D3E90012904704B070BDD2F84E
:10A158001031002BB4D04FF488711046FFF768FF18
:10A168000C4BD2F83C0599698842A9D1DC69D968B9
:10A1780064B1D2F8005225F02005C2F800521A69DD
:10A188009C61DA60DE61FFF75BFF99E79C61FAE7A3
:10A1980000200040942B00202DE9F843674B0679F6
:10A1A8009146242202FB0632044692F820200D46EE
:10A1B8009846002A40F0BE8061490068FFF7AAFC73
:10A1C8000746002840F0B8802868421C10D01F2895
:10A1D80087BF5C4A00F01F0303464FF0A0420121ED
:10A1E800994003F5E073C2F80815032142F82310DB
:10A1F80069684B1C0DD01F298BBF01F01F030B464C
:10A20800504A4FF0A04203F5E0734FF0000C42F8BB
:10A2180023C02368AA69C3F8242595F814C06A7D69
:10A22800BCF1010F4CEA0202C3F86C25C3F80C0517
:10A23800C3F814152BD1A968481C0DD01F298BBF52
:10A2480001F01F020A463F484FF0A04002F5E072B5
:10A258004FF0000C40F822C0E868421C13D01F28B9
:10A2680087BF384A00F01F0C84464FF0A0424FF0D9
:10A27800010E0EFA0CFE0CF5E07CC2F808E54FF072
:10A28800030E42F82CE0C3F80805C3F81015242380
:10A29800734308EB0302C2F804902A6948F80320C4
:10A2A800B9F1000F30D020682A7F4FF48871FFF78A
:10A2B800BFFE20684FF49071FFF7BAFE20684FF494
:10A2C8009271FFF7B5FE20684FF4A271FFF7B0FE58
:10A2D8004FF4AC712068FFF7ABFE23681A49C3F846
:10A2E8000413190B43F307335201002BD2B21CDBC2
:10A2F8001648C51885F8002301225B0901F01F01E3
:10A3080002FA01F140F8231023680822C3F8002557
:10A31800242303FB06830022C3E906225A61012293
:10A3280083F820203846BDE8F883094B01F00F0177
:10A338005A54E9E70827F5E71127F3E7942B00209B
:10A3480089A00200000300501003420000E100E071
:10A3580014ED00E02DE9F0413D4E05790468242311
:10A3680003FB056302465B68ABB13A4BC4F808339C
:10A3780044F30733002B4FEA14310CDB01F01F00C4
:10A388005B09012181402033334840F82310BFF393
:10A398004F8FBFF36F8FD4F8003223F02003C4F837
:10A3A8000032242303FB05639B6933B14FF4A27188
:10A3B8002046FFF73DFE012363604FF4AC71204651
:10A3C800FFF736FE0123E360242303FB0563D4F87B
:10A3D80058110029FBD0996919B1D4F84411002902
:10A3E800F5D00023C4F800351368D3F80C05D3F86A
:10A3F8001485D3F80815D3F810754FF0FF32904242
:10A40800C3F80C25C3F81425C3F80825C3F810258C
:10A4180001D0FFF725FEB8F1FF3F02D04046FFF715
:10A428001FFE7A1C02D03846FFF71AFE4B1C02D0DA
:10A438000846FFF715FE2046FFF78EFB242303FB93
:10A448000565002385F820306B60BDE8F08100BF0A
:10A45800942B00201003420000E100E001F060436B
:10A46800B3F1005F2DE9F041064638D11E4B07795C
:10A47800242505FB073598466C69002C31D16A61A3
:10A488000068A9604FF49071FFF7D2FD4FF4AC71EA
:10A498003068FFF7CDFD33686A69A968C3F84415C9
:10A4A800C3F8482501229A606A68AAB9D3F820211E
:10A4B800D3F858411AB9002CF8D00F2407E0002C23
:10A4C800FBD10122DA60D3F85821002AFBD02423DB
:10A4D80003FB078700237B612046BDE8F081102439
:10A4E800FAE71124F8E700BF942B0020032811D8BD
:10A4F800012A0AD101290FD100F10E02D2B20D4B67
:10A5080000EB40001A54002070470129F7D00229B7
:10A5180004D049B1072070470022F8E7054B00EB4B
:10A52800400018444270EEE7024B00EB400018442C
:10A538008270E8E7B82B002008B50122022100202C
:10A54800FFF7D4FF08B1072810D107220221012004
:10A55800FFF7CCFF08B1072808D100210A220846D6
:10A56800FFF7C4FF10B1072808BF002008BD00008E
:10A578000388102B10B502D0112B1ED010BD1A4C19
:10A588002168B1B901220846FFF7B0FF08B10728D2
:10A5980024D1072202210120FFF7A8FF08B10728CC
:10A5A8001CD1042202210020FFF7A0FF08B10728D0
:10A5B80014D1236801332360E0E70B4A1368013B99
:10A5C8001360002BDAD1FFF7B7FF0028D6D0074B6E
:10A5D8001B68002BD2D0BDE810401847034B1B68FE
:10A5E800002BE6D09847E4E7C82B0020C42B0020B6
:10A5F80075DF704776DF70478FDF7047FDF7F6BC71
:10A608000146014801F0C3BA582D002008B5074893
:10A6180001F0E8F908B1FDF7E9FC0120FEF798FE22
:10A62800BDE808400020FEF77FBE00BF842D002053
:10A638000388212B13B5044648D007D8112B2ED0F8
:10A648001F2B39D0102B0AD002B010BD3B2B01D0E4
:10A65800562BF9D1A0881321FFF7CCFF31E01F4B0F
:10A668001F482049C01AC008000440F00300FDF745
:10A67800D7F9A1881C48002201F096FB08B1FDF724
:10A68800B5FCA188194800F017FC08B1FDF7AEFC2D
:10A698000120FEF749FE0020FEF75AFED4E70F4BD3
:10A6A8000F481349C01AC008000440F00300FDF722
:10A6B800B7F9FFF7ABFFC7E700F108018088FFF79C
:10A6C80097FF0028C0D0FDF791FCBDE7002301A942
:10A6D8008088ADF80430FFF78FFFF2E7B8C40200B6
:10A6E800E0C40200A6CC0200582D0020101E002055
:10A6F800B1CC02000378052B03D1406808B1FDF7FF
:10A7080075BC70470B2807B50BD11048019101F0B3
:10A718001BFB019A50B143F20202904213D0082861
:10A7280011D003B05DF804EBFDF760BC084B094895
:10A738000949C01AC008000440F0030003B05DF8DE
:10A7480004EBFDF771B903B05DF804FB582D002048
:10A75800B8C40200E0C40200BFCC020070B50D7896
:10A76800012D06460C4602D0022D1ED070BD0A1DD2
:10A778001948498801F018FB1848194B628819498B
:10A788001B1ADB081B0443F00300FDF74DF9FDF726
:10A7980017FC08B1FDF72AFC304601F0ADFA002895
:10A7A800E4D0BDE87040FDF721BC0C4B0C480A7999
:10A7B8000D49C01AC008000440F00300FDF734F941
:10A7C800237928461BB1BDE87040FEF7ADBDBDE852
:10A7D8007040FEF7BDBD00BF582D0020B8C4020070
:10A7E800E0C40200D6CC020009CD02001FB54FF428
:10A7F80080410020FCF780FF08B1FDF7F7FBFCF76C
:10A80800BBFEFDF7B5FC08B1FDF7F0FB0120FEF734
:10A81800C2FD3E4840F233320121FDF77BFB08B10F
:10A82800FDF7E4FBFEF716FB08B1FDF7DFFB01F0CF
:10A8380013FB08B1FDF7DAFB0023694601200093FA
:10A8480001F0B2FB08B1FDF7D1FB684601F05CFCF2
:10A8580008B1FDF7CBFB10220021684601F079FD15
:10A8680001232B4A2B488DF8043069468DF80C30AB
:10A8780001F068F808B1FDF7B9FB2648002201216C
:10A8880001F048F808B1FDF7B1FB234A214800213F
:10A8980001F012F808B1FDF7A9FB2048002100F0EB
:10A8A800D9FC08B1FDF7A2FB08220021684601F097
:10A8B80050FD1B4C1B4B00936846019400F0BEFAF8
:10A8C80008B1FDF793FB184B1848CDE900346946E9
:10A8D800174B029301F0AEF908B1FDF787FB154B52
:10A8E80015481649C01AC008000440F00300FDF7D7
:10A8F80097F8FFF78BFE0020FEF716FDFCF74CFFDC
:10A908000028FBD1FEF7BCFAF8E700BFF01D0020D5
:10A91800FDA60200842D002064CD0200702D0020C9
:10A92800F81D002009A6020065A70200582D002086
:10A9380005A60200B8C40200E0C402002FCD020040
:10A9480030B5C8B1F2B10024651C8D4206DA15880D
:10A95800A54212D805196D789D420ED1A14211D990
:10A96800005D48B1013880B230B10234A3B210FAA8
:10A9780084F4A14206DB138030BD055D01352C440B
:10A98800A4B2E1E70020F7E7F7B500230646ADF8E3
:10A998000630144612B9002003B0F0BD09230DF1AA
:10A9A8000602FFF7CDFFBDF806700546002FF2D06E
:10A9B8000028F0D0204601F026FDA8420246EAD140
:10A9C800F119204601F069FCB0FA80F04009E3E78C
:10A9D8000AB1FDF7F5BEFDF7FCBE73B50191019C08
:10A9E80006466CB100252C46294601A8FDF7FBFE5A
:10A9F80018B106EB440301349D800135142DF3D1C1
:10AA08003046346002B070BD2DE9F0470388848871
:10AA1800103B8CB005460A2B1FD8DFE803F0063F31
:10AA28001E1E1E1E1E1E1E604400314EB368DB43F0
:10AA3800009371686846FDF702FF009901A8FFF7C7
:10AA4800CCFF0DF108094FF00008019B984507D38A
:10AA5800132C13D90420FDF7C9FA0CB0BDE8F08710
:10AA680039F802AB00270137514606EB8700FDF79E
:10AA7800B0FE1E2FF7D108F10108E6E71D48214670
:10AA8800FDF79EFE1C482146FDF79AFEEB7B022B44
:10AA9800E3D11A482146FDF793FEDEE71548214623
:10AAA800FDF797FED9E7027A15483F2A4FEA1215B3
:10AAB800214694BF00220122FFF78AFF022D94BF8E
:10AAC800002201220F482146FFF782FF012D0E4880
:10AAD80094BF002201222146FFF77AFFBDE7037ADF
:10AAE800002BBAD1427A0648C2F3C0022146F3E7E6
:10AAF800EC2D0020F42D0020F02D0020F82D002052
:10AB0800042E0020002E0020FC2D002030B50B4B19
:10AB180019680B4B0022914201D1002009E09D7871
:10AB28008478A54206D11D880488A54202D1054B28
:10AB3800186830BD01320433EDE700BF702E0020E5
:10AB4800742E0020682E00202DE9F84F90F8C6A238
:10AB58004FF0760B04460AFB0B0088469146FFF738
:10AB6800D5FF074670B3D4F8CC52052D2AD804EB8C
:10AB7800C5165A46A6F8D2920BFB0A4106F535705F
:10AB880001F0BEFBB8F1000F14BF0023022386F8C2
:10AB9800D0320D4BC6F84C731A6801359542C4F88B
:10ABA800CC521D460ED104F534760027F36F30469B
:10ABB80098472B6801379F4206F18006F6D3002399
:10ABC800C4F8CC32BDE8F88F702E002030B5A1B0A3
:10ABD80004460D467C22002101A801F0BAFB03239C
:10ABE8008DF80430044BADF806501B6802940BB185
:10ABF80001A8984721B030BD682E00202DE9F0410A
:10AC0800074691F8C60276234FF00008A0B081F8F5
:10AC1800C88200FB03100C461546FFF777FF06466F
:10AC280060B17C22414601A801F093FB01238DF815
:10AC38000430ADF80650029701A8B04729462046CF
:10AC4800FFF7C4FF20B0BDE8F081000030B58BB03D
:10AC5800044620220D4602A8002101F07AFB0422B6
:10AC68000DEB0200002101F074FB94F8C53294F852
:10AC7800C62213B3013B7621DBB25143122000FBFD
:10AC8800031323445B8A01339BB2ADF80430762367
:10AC980003FB024202A91389ADF8063003238DF89D
:10ACA8000830019BCDE90543064B0493064B2A4621
:10ACB800186800F0D3FC0BB030BD762303FB0243C9
:10ACC800DB88E2E705AC02008C2E0020F0B50446D4
:10ACD80089B020220D466846002101F03AFB94F81D
:10ACE800C7321E4A01331268DBB2934284F8C73276
:10ACF8004FF000022BD294F8C632194F84F8C522BF
:10AD08000133DBB2762113FB01F057F8237084F886
:10AD1800C6322618275001FB034332711B68CDF851
:10AD28001230104B029302220F4B8DF800200122A3
:10AD3800ADF81020186803942A46694600F08EFC86
:10AD480018B12A462146FFF759FF09B0F0BD84F82B
:10AD5800C82229462046FFF739FFF6E7702E002063
:10AD6800742E002005AC02008C2E00202DE9F0473F
:10AD7800044688B00D46164600212022684601F098
:10AD8800E8FA94F8C62294F8C512762312FB03F267
:10AD9800A018122790F804C017FB012301F1010E37
:10ADA8000A33E645234411D004F11C0900F1220EB0
:10ADB8000CF1FF389144CAB294450BD988451B89D8
:10ADC8000ED102899A421BD1002312E01B89028905
:10ADD800934215D101232B70002008B0BDE8F087FD
:10ADE80007FB01FA01333EF80A2093421DD109EB13
:10ADF8000A0394F8C522013284F8C5220131DAE742
:10AE080001339BB2ADF810300A4B029300210A4B74
:10AE1800297004218DF80010ADF8122018680394E9
:10AE28003246694600F01AFCD7E7013A9BB292B263
:10AE3800E8E700BF05AC02008C2E002010B570B109
:10AE4800026862B1436853B10649002008600649A8
:10AE580001240C7005490A60054A136010BD0E20D4
:10AE6800FCE700BF702E00206C2E0020682E00200A
:10AE78008C2E002010B5044680B10C4B1B787BB19A
:10AE8800FFF744FE70B90A4A1368052B0CD8094924
:10AE9800246841F823400133136010BD0E20FCE7FD
:10AEA8000820FAE70020F8E70420F6E76C2E0020D7
:10AEB800702E0020742E0020F0B50D468BB004468D
:10AEC80000283BD0204B1B78002B39D01F4B1B6828
:10AED800002B35D090F8C812002933D14FF4BA624C
:10AEE8001B4F019101F035FA0199202202A801F0C7
:10AEF80030FA3868294600F051FCE8B9154BC4F817
:10AF0800CC0284F8C502A4F8C6021868206002239F
:10AF18008DF808300126104BCDF81A00A4F8CA5253
:10AF28003868ADF818602A4602A90594049300F021
:10AF380095FB08B984F8C8620BB0F0BD0E20FBE79A
:10AF48000820F9E71120F7E76C2E0020702E00206A
:10AF58008C2E0020742E002005AC02002DE9FF4144
:10AF68000C46054660B159B1904B1B7843B1038834
:10AF7800322B64D007D8112B00F00A81302B20D057
:10AF880004B0BDE8F081332BFAD18288B1F8CA3217
:10AF98009342F5D1C68891F8C6C291F8C572002EC1
:10AFA80000F0C080762101FB0C4C00239CF80410B3
:10AFB8008DF80F307B1C8B4200F0E48084F8C5329A
:10AFC800A2E08388B1F8CA229A42D9D1C3886BBB60
:10AFD80091F8C632762202FB03130269C3F80620F1
:10AFE80091F8C432827A1344062B0CDC81F8C432FF
:10AFF800A9882046FFF72AFE0028C1D0AA88214642
:10B00800FFF7FCFDBCE7062381F8C4326848694BAA
:10B018006949C01AC008000440F002000190FCF71A
:10B02800FFFC66490198FCF7FBFCE1E7002120469C
:10B03800FFF78AFDA9882046FFF748FEA0E7828827
:10B04800B1F8CA329A429BD1C388002B58D191F8E3
:10B05800C672762317FB03F701EB0708837A98F883
:10B0680004603344062B26DC88F80430334603EBAF
:10B07800C30207EB420205F10C062244002198F8AE
:10B088000400834206F10A0602F1120227D31222B3
:10B09800013B02FB034394F8C62276213B4401FBA3
:10B0A8000242598A138999422AD2062828D0A988A7
:10B0B80084F8C5029DE7062388F804303C483D4BD8
:10B0C800CA5B3F49C01AC008000440F00200019062
:10B0D800FCF7AAFC3B490198FCF7A2FCC6E73046FE
:10B0E800013350F80ACD42F808CCD0F804C042F831
:10B0F80004CC0089108051809180D1801181BEE7F5
:10B10800002384F8C532AA880DF10F012046FFF705
:10B118002DFE00287FF472AF9DF80F30002B3FF40E
:10B128002FAF32E0762303FB0CF1122303FB071346
:10B13800B0F80AE023447645BFF434AFC189A1F5DD
:10B148002451082908D8DFE801F014170507070774
:10B1580007071A0081899982998A39B1D98A29B150
:10B16800198B19B1598B00297FF41CAF01360630B1
:10B17800E1E78189D982EFE781891983ECE7818941
:10B188005983E9E701238DF80F30AA8801214EE79A
:10B19800B1F8CA3282889A4201BF002381F8C832C6
:10B1A8004FF6FF73A1F8CA32EAE600BF6C2E002002
:10B1B800F8C40200B8C4020072CD020091CD0200AA
:10B1C800D6CD02001CCE020090DF7047A5DF704785
:10B1D800B5DF70477FB50023ADF80810ADF80A1049
:10B1E8006A4602A9064603930093ADF80430FFF7B8
:10B1F800EBFF054600B3124B124CE41AE408FDF7C6
:10B2080083FF240444F0010403460F4932462046D4
:10B21800FCF713FCBDF80020BDF8023052EA030128
:10B2280003D00A492046FCF708FCBDF804201AB1EF
:10B2380007492046FCF7F8FB284604B070BD00BF5C
:10B24800B8C4020018C5020082CE0200CCCE0200AB
:10B258000BCF020078B14FF0171303601B23037163
:10B268001723C380038141F61B3200230161438108
:10B278008281184670470E207047000013B50346B8
:10B2880080880C46B8B91A88242A00F0958014D80A
:10B29800112A71D0232A00F09D80102A3BD0A37A6E
:10B2A8004BB1E1880020FFF791FF002840F098801B
:10B2B8004FF48073638102B010BD3A2A64D0552AD6
:10B2C800EDD1DB88C988A072172B38BF17238B42B2
:10B2D80028BF0B462381FFF77BFF60B1FDF714FF02
:10B2E800484B4949024649481B1ADB081B0443F0EE
:10B2F8000100FCF799FBE37A002BD0D12369002BDE
:10B30800CDD040F6772200922289ADF80420694614
:10B3180020469847C3E7DB7B0A790A73012B13D0D1
:10B32800022B14D0E18823898B4205D20020FFF735
:10B338004DFF70B90123E372217B637B8B42AED250
:10B348000020FFF747FFAAE70B88E380EAE74B886E
:10B35800FBE7112802D10123A372EDE7FDF7D4FE24
:10B36800284B2B49024629481B1ADB081B0443F0CB
:10B378000100FCF759FBDFE71723CB800B8141F66F
:10B388001B3348818B818AE75B89CA88934228BF2F
:10B398001346172B0A6938BF17230B814AB1C97A9C
:10B3A80039B140F677210091ADF80430694620465E
:10B3B80090470023638172E71A7A0B694A73002B5E
:10B3C8003FF46DAF4DF67A218DF8050000918DF8A8
:10B3D80004209CE7197A237B994228BF1946B0E7D5
:10B3E80011283FF468AFFDF78FFE064B0849024667
:10B3F80006481B1ADB081B0443F00100FCF714FB8A
:10B4080059E700BF18C5020092CF0200B8C4020075
:10B4180061CF02009BDF70479DDF70479EDF70475A
:10B42800A1DF7047A3DF7047AEDF704730B50488EF
:10B4380000239AB2944206D9456835F813508D42D4
:10B4480003F10103F5D1104630BD8B6910B50C46E8
:10B458001988102912D80231FDF7A3FC606078B171
:10B46800A16900230222FDF7DEFCA2696068128848
:10B47800E1690223FDF7D7FC002010BD0920FCE795
:10B488000420FAE710B50C46C98A10290AD8FDF736
:10B4980088FC606040B1E28AA1690023FDF7C3FC23
:10B4A800002010BD0920FCE70420FAE7F0B58BB0B6
:10B4B800002204460DF10601C068124EFDF77BFD1F
:10B4C800142502460AB10BB0F0BDBDF80670A3689A
:10B4D80005FB073702A93846FDF76DFD38B1002294
:10B4E800E0680DF10601FDF766FD0246EAE79DF802
:10B4F800083056F8233013B10398FDF73CFC0022BE
:10B50800E8E700BF40D00200F7B505460C4C0D48EF
:10B518000092241AE40824040B460F4616460A49EA
:10B528002A7844F00100FCF792FAAB6833B1E96875
:10B538003A46304603B0BDE8F040184703B0F0BDC6
:10B5480020C50200B8C40200CECF0200F0B58FB00B
:10B558000D46012206A90646FDF72DFD044690B9C1
:10B568009DF81830052B65D8DFE803F0030F1C247D
:10B57800292EBDF82A20BDF828102846FFF750FFCD
:10B588000446112C40D10FB0F0BD02A90798BDF8B0
:10B598002E200C910023FDF750FC0AA92846FFF73E
:10B5A80041FFEDE7BDF828100DF12A022846FFF704
:10B5B80031FFE5E70AA92846FFF72EFFE0E70AA9C9
:10B5C8002846FFF72BFFDBE70DF1060402AB214607
:10B5D80007980D9302220023FDF72FFCBDF80620E3
:10B5E8000D9907980C940223FDF727FC0AA9284611
:10B5F800BDF80670FFF718FF04460028C1D1BDF852
:10B608000630BB4218BF0C249DF818200F4B53F886
:10B61800223013B10798FDF7AEFB002206A9304689
:10B62800FDF7C9FC002CAED02246294606A8FFF734
:10B638006BFFA8E70648074B07491B1ADB081B04E2
:10B6480043F00200FCF7ECF9DEE700BF40D002004F
:10B65800B8C4020020C5020018D002002DE9F84342
:10B668000F461446054620B94FF00E084046BDE87F
:10B67800F8830029F8D0FFF719FF3B78052B6AD823
:10B6880021462846FFF7D2FE2B88834263D0142632
:10B698004643A8683044FDF787FC002860D03B7813
:10B6A800052B3BD8DFE803F00311171E242A7A8AFA
:10B6B800398A2046FFF7B4FE112851D058B3024604
:10B6C80021463846FFF720FF25E007F11001204604
:10B6D800FFF7A8FEF0E7398A07F112022046FFF7C4
:10B6E80099FEE9E707F110012046FFF795FEE3E729
:10B6F80007F110012046FFF791FEDDE7BB6907F16E
:10B7080010012046B3F80080FFF78EFE30BBBB69FE
:10B718001B8843450DD14FF00008A7E71B4B1C4879
:10B728001C49C01AC008000440F00200FCF778F970
:10B73800F1E70C20C3E72869002895D039469847D7
:10B748008046A0B192E73B7859F82330BBB17868BE
:10B75800FDF711FB13E04FF0070887E71128AED17A
:10B768000D4A3B7852F823309146002BE3D1A86864
:10B7780039463044FDF7C2FB80460028E3D1A8686B
:10B7880021463044FFF7E2FE70E700BFB8C402006C
:10B7980020C5020018D0020040D00200F8B50D46BE
:10B7A800044678B3FFF782FE29462046FFF73EFE9F
:10B7B8002288824211D00020F8BD616831F8131048
:10B7C800814203F101030BD0208800234FF6FF7656
:10B7D8009AB282420BD30420EEE700234FF6FF70A3
:10B7E80099B28A42E9D82069FDF7C3FAECE76168A3
:10B7F8005A0001EB43078A5AB24203F10103E7D129
:10B808003D80D8E70E20D7E737B50C4608B301B31B
:10B818000588112D15D181882046FFF707FE23885A
:10B82800ADF80600834214D0112D14D163684FF689
:10B83800FF7223F810200DF10601E068FDF75EFBAA
:10B8480007E0A5F130031F2BE5D9A5F150031F2B05
:10B85800E1D903B030BDA368142202FB0030FFF722
:10B8680075FEF6E78ADF70478BDF70478CDF70471D
:10B8780030B590F8233089B004460D46D3B190F81E
:10B888002C300193FFF7F0FF1422002103A800F0E9
:10B8980060FD019B04F1240204F12E01A81CFFF7AE
:10B8A800E5FF05238DF80C30049018B1E36B0BB15C
:10B8B80003A8984709B030BD70B51546044618B3BB
:10B8C80012B319BB104600F09EFD0138C0B21F2804
:10B8D8001ED894F820600EB1042014E029462046B2
:10B8E80000F06AFD78B194F82000431C84F82030F9
:10B8F80004EB4014284600F086FD294602462046FF
:10B9080000F0FEFC304670BD0E20FCE70720FAE789
:10B918000C20F8E768B1CB060DD011F0010116BF75
:10B92800012380F8211080F8213080F8222000209F
:10B9380070470E2070470720704790F82E00C0F31C
:10B94800C000704738B50D460446002843D0C2638E
:10B958000021232200F0FDFC65B32B7984F8233005
:10B968002B7B84F82C302B68D3B104F12E0203F121
:10B978000C0153F8040B42F8040B8B42F9D11B88D5
:10B988001380AA680AB31068516804F1240303C33A
:10B9980004F1400323661F23A4F86430002038BD57
:10B9A800E28DA38602F0E30242F48272E2850B4A3A
:10B9B8002263E6E7E38DA58603F0E30343F482738D
:10B9C800E385064B236384F82350054A4FF0C87378
:10B9D800C4E90923DCE70E20E1E700BFA00050001E
:10B9E8000600180010B5044686B048B3142200219A
:10B9F80001A800F0AEFCFFF737FF2046FFF79DFFD8
:10BA080030B1E36B23B101228DF8042001A89847D7
:10BA180004F1600104F12E00FFF724FF044630F022
:10BA280008000BD00748084B08491B1ADB081B0401
:10BA380043F001002246FBF7F7FF204606B010BD91
:10BA48000E20FBE7B8C4020008C5020058D0020067
:10BA58002DE9F04F054687B035F8083B1B2B064605
:10BA68000C4678D01D2B14D0102B2FD11422002176
:10BA780001A800F06EFC06238DF80430B388ADF8F9
:10BA88000C3004F12E030593E36B0295F3B101A882
:10BA980075E01422002101A800F05BFC04F12E03DC
:10BAA80020460593FFF749FF04F1600888B1022397
:10BAB8008DF8043001A8E36B0295984741460020B1
:10BAC800FFF7D0FE29462046FFF7D2FE07B0BDE8B3
:10BAD800F08F94F8210094F8229088B394F820A06D
:10BAE800B6F824B0274604EB4A1A574518D1002067
:10BAF800034601220295B9F1000F24D09A4226D1BB
:10BB080000238DF8043029462046FFF7B1FEE36B89
:10BB18000BB101A8984741460020FFF7A3FED5E7DF
:10BB28003A46306A5946FEF72FFF20370028DCD006
:10BB38009DF80C3043F001038DF80C300123D8E751
:10BB480003460246D6E710B18DF80490DBE70323DD
:10BB58008DF80430DBE71422002101A800F0F9FB7E
:10BB6800327A012AB2D1E36B002BAFD004212E34F4
:10BB78008DF8041005948DF808200DEB0100984706
:10BB8800A4E762DF7047CB6803B1184770472DE917
:10BB9800F0430A7885B00346002A39D18C8841F2EF
:10BBA8002350844234D18C79187C844230D10120CE
:10BBB8008DF8040091F808E04888BDF80C60BDF8DD
:10BBC8000A50BDF80840ADF806001746104641F285
:10BBD800245841F2255986451DD80FB1ADF80C609F
:10BBE8001AB1ADF80A50ADF8084019884FF6FF723F
:10BBF800914209D05A683AB95A882AB90298BDF8C8
:10BC08000C20C3F80200DA809A6801A91846904708
:10BC180005B0BDE8F083B1F80EC0C44506D0CC45E8
:10BC280001D1CE8A012701301231D4E7CD8A0C8B9D
:10BC38000122F8E7F0B5194A87B002AD04460B4671
:10BC480002F1100C2F46106851682E4603C60832C0
:10BC580062453546F7D1FCB1F3B11968E1B15A68CC
:10BC6800D2B100209B68A1604FF6FF75C4E900506F
:10BC78006261E36004F110013846FFF782FF48B9BA
:10BC8800237C8DF8063001A841F22353ADF8043027
:10BC9800FFF7F0F807B0F0BD0E20FBE78FD00200E9
:10BCA8001FB503460846D9B1D3B11A88112A19D04D
:10BCB800392A15D109889A888A4211D15C898188E4
:10BCC8008C420DD1D98901290AD11B7C8DF8083005
:10BCD80002218DF804108368ADF8062001A9984761
:10BCE80004B010BD9A880B889A4202BF4FF6FF72C3
:10BCF8000023C1E90023F3E700B58BB0E8B102885F
:10BD08004FF6FF739A421AD00E49CDE904104188C4
:10BD1800ADF81A104FF40031079101A901230891D9
:10BD28004069ADF8043002A98DF808308DF8183054
:10BD3800FFF794FC0BB05DF804FB0E20FAE708202F
:10BD4800F8E700BF8FBB020010B58AB004468DF833
:10BD5800071010B302884FF6FF739A421FD02022B3
:10BD6800002102A800F0F5FA01238DF808300D4BE8
:10BD780022886069CDE90434E388ADF81A300DF102
:10BD8800070308934FF48033079302A902238DF821
:10BD98001830FFF763FC0AB010BD0E20FBE708203F
:10BDA800F9E700BF8FBB020048B1018022B11368D8
:10BDB800C0F802309388C3804069FFF7EFBC0E20BB
:10BDC800704710DF7047000013B5044609496846FC
:10BDD800FDF73FF9019808B902B010BDD0E900217C
:10BDE8002046904718B16846FDF73DF9F2E7112063
:10BDF800F2E700BFACD0020013B504460749684615
:10BE0800FDF727F9019B0BB902B010BD2046D3E915
:10BE1800002190476846FDF726F9F3E7C4D00200F1
:10BE28000B4991F816335A09EC231341DB0706D561
:10BE3800084B9A683AB94FF480030B60704742F296
:10BE48000200FCF7D3B81A6842F480021A607047FF
:10BE580000E100E09C2A0020F7B5194F3C7864BB4C
:10BE6800184E012520463570FFF7AEFF112821D066
:10BE78002046FFF7C1FF144B8DF803401868019066
:10BE88000DF10300FCF79CFA104901A8FFF799FF90
:10BE98000446B0FA80F0400938709DF80300FCF7BA
:10BEA800B3FA3CB90A4B34701C70FFF7B9FF284647
:10BEB800FFF7A2FF204603B0F0BD0824FAE700BF51
:10BEC800912E0020902E0020A7D0020011800200A1
:10BED800922E0020014B1878704700BF912E002049
:10BEE80007B508496846FDF7B4F8019B13B903B0D4
:10BEF8005DF804FBD3E9002090476846FDF7B3F8E6
:10BF0800F3E700BFB8D00200FFF7EABF60DF704771
:10BF180069DF704761DF704730B5114B1B7891B00E
:10BF2800E3B1104D34240DF1020103A8ADF802402D
:10BF3800FFF7F0FF70B9294601A8FDF78AF8029BC0
:10BF4800002BF0D003A8D3E90021904701A8FDF702
:10BF58008AF8F4E7052801D0FCF748F811B030BD9D
:10BF6800932E002010D3020010B50A4B04460A484D
:10BF78001B1ADB081B0443F0030024B90749FBF72D
:10BF88004FFD0E2010BD0649FBF74AFD054B236007
:10BF98000020F7E730C50200B8C40200EEC6020070
:10BFA800D0D00200C81D00207FB5064608460C46C2
:10BFB800FFF7DAFF0546002840F0928001460C2280
:10BFC80001A800F0C6F901238DF8063022688DF823
:10BFD8000460062301A92020ADF80830FFF798FF78
:10BFE80060B1FDF791F8414B4149024641481B1A9F
:10BFF800DB081B0443F00100FBF716FD0C220021AF
:10C0080001A800F0A6F900238DF80530226840F257
:10C01800011301A94020ADF80630FFF779FF60B1A0
:10C02800FDF772F8314B3449024632481B1ADB08D7
:10C038001B0443F00100FBF7F7FC0C22002101A8C8
:10C0480000F087F90A2322688DF8043001A901203D
:10C05800FFF75EFF60B1FDF757F8244B274902460A
:10C0680024481B1ADB081B0443F00100FBF7DCFC27
:10C078000C22002101A800F06CF9F8232268019332
:10C0880001A9A120FFF744FF60B1FDF73DF8174B68
:10C098001B49024617481B1ADB081B0443F0010022
:10C0A800FBF7C2FC0C22002101A800F052F99DF810
:10C0B800043022686FF3000301A9A0208DF8043032
:10C0C800FFF726FF78B1FDF71FF8084B0D49024628
:10C0D80008481B1ADB081B0443F00100FBF7A4FC0B
:10C0E800284604B070BD0546FAE700BF30C5020017
:10C0F800D8D00200B8C402001ED102006AD10200E2
:10C10800B6D1020007D2020073B505460668FFF7EC
:10C11800FDFE2B68B34204461DD91A481A4B1B4929
:10C128001B1ADB081B0443F002000190FBF778FCA4
:10C138002B68174901983246FBF77FFC4FF0805374
:10C148002A68D3F80C31134901989B0203F1005374
:10C158009A1AFBF769FC2CB90F4B01221A7020467A
:10C1680002B070BD2046FCF7CFFF074B0B490246D3
:10C1780004481B1ADB081B0443F00100FBF754FCBE
:10C18800EDE700BFB8C4020030C502005AD2020071
:10C1980089D20200BAD20200932E0020E4D2020013
:10C1A8004BDF70471FB50D4C01A8FFF7F9FF70B9B9
:10C1B800214602A8FCF74DFF039B002BF4D0019801
:10C1C800D3E90021904702A8FCF74DFFF4E70528C2
:10C1D80001D0FBF70BFF04B010BD00BF28D302004D
:10C1E8007F2805D8034B185C034B5B5C18407047ED
:10C1F8000020704740D30200C0D30200A0F16103C1
:10C20800192B98BF20387047A0F14103192B98BF0C
:10C21800203070477F2805D8034B185C034B5B5CC4
:10C22800184070470020704740D30200C0D3020076
:10C23800A0F16103192B98BF20387047A0F1410382
:10C24800192B98BF203070477F299ABF01700120B1
:10C258006FF02E0070475AB10A787F2A0AD800B1C9
:10C268000260002119605960501A18BF01207047F8
:10C27800002070476FF02E007047000008B5034B90
:10C288005B689B681B68984708BD00BFE0230020D7
:10C2980008B50921FFF7F2FF08BD7AB370B4144658
:10C2A8000F2A15D902460B4640EA010515F0030F7F
:10C2B80001D0013C0EE019461046043204330668EA
:10C2C8000D68AE4204D110461946043C042CF2D83D
:10C2D800013C0ED00A460346044411461846013371
:10C2E800013206780D78AE4203D118461146A342B2
:10C2F800F3D100780B78C01A70BC704700207047E3
:10C30800844640EA010313F0030F18D18446202A1B
:10C318000BD32DE9F007B1E8F807A0E8F807A2F178
:10C328002002202AF7D2BDE8F007042A07D351F8E3
:10C33800043B40F8043BA2F10402042AF7D2002A85
:10C3480005D011F8013B00F8013B013AF9D16046EC
:10C3580070478446002A2DD010F0030F04D000F84F
:10C36800011B013A26D0F7E7C9B241EA012141EAA7
:10C378000141202A12D3A2F120022DE9F0030B4635
:10C388000C460D460E460F4688468946A0E8FA0335
:10C39800203AFBD2BDE8F00320320BD0042A05D3A3
:10C3A80040F8041B043A05D0042AF9D200F8011B0E
:10C3B800013AFBD16046704710F0030F19D111F014
:10C3C800030F16D12DE970004FF001364FF080337E
:10C3D80050F8044B51F8045BAC4205D1A4EB0605B8
:10C3E80025EA04051D40F3D0A0F10400A1F10401E1
:10C3F80070BC10F8012B11F8013BD21A01D1002BA7
:10C40800F7D11046704700F1010110F0030F11D069
:10C4180010F8012B002A23D010F0030F0AD010F8CF
:10C42800012B002A1CD010F0030F03D010F8012BA9
:10C43800002A15D02DE970004FF001324FF08033FB
:10C4480050F8044BA4EB020525EA04051D4000D171
:10C45800F6E7A0F1040070BC10F8012B002AFBD10C
:06C46800A0EB010070478B
:08C470001D9402000000000011
:10C4780011AA02000000000079A5020000000000D7
:10C4880011B80200F81D002065AF0200101E002040
:10C4980085B20200702D002059BA0200842D0020B8
:10C4A800A9BC0200582D002039A602000000000097
:10C4B8008ACC02000000000090CC020000000000BE
:10C4C80097CC0200000000009BCC02000000000096
:10C4D800A0CC02000000000002C602000000030316
:10C4E800D8C602000000000001C7020000000000DA
:10C4F80076CE02000000030385D00200000003038B
:10C508007CD002000000030384CC0200000000007D
:10C51800C1CF02000000030333D002000000030370
:10C528009FD002000000030301D3020000000303B0
:10C538001CD302000000030366C7020000000000CD
:08C548007CC7020000000000A6
:10C550003824002000250020082500204024002049
:10C5600018000000CC2B0020942C00209C2C0020D4
:08C57000D42B0020180000008C
:10C57800A02C00209C2C00200100000002000000DC
:04C5880001000000AE
:08C58C00B99402000000000058
:10C5940021BF020000000000ADC102000000000045
:10C5A400D4C5020000000000E0C50200DC1D00202C
:10C5B400FFFFFFFFFFFFFFFFFFFFFFFFFFFFFFFF87
:10C5C40000000000000000000000D6010601000089
:10C5D400E97402004D750200897402007561727479
:10C5E4005F6C6F675F6261636B656E640042616379
:10C5F4006B656E647320666C757368656400617046
:10C6040070000000282900207F000000A8290020D5
:10C614001B5B306D002573001B5B313B33316D00B8
:10C6240025734C6F67732064726F70706564202883
:10C6340025642925730D0A003C25733E2025733A91
:10C644002000202530327800202020007C00256343
:10C65400001B5B313B33306D001B5B313B33326D70
:10C66400001B5B313B33336D001B5B313B33346D5B
:10C67400001B5B313B33356D001B5B313B33366D47
:10C68400001B5B313B33376D007761726E696E67F7
:10C6940000696E666F0064656275670014C6020007
:10C6A40055C602001CC602005DC6020065C6020033
:10C6B4006DC6020075C602007DC6020085C6020072
:10C6C40000000000EEC602008DC6020095C60200FE
:10C6D4009AC602006170705F627574746F6E0000B8
:10C6E400C8290020466174616C206572726F720003
:10C6F40053797374656D207265736574006170702D
:10C704005F74696D6572000001000600000000009E
:10C71400142A00208180020052544320696E7374ED
:10C72400616E636520616C726561647920696E690C
:10C734007469616C697A65642E005254433A2069C5
:10C744006E697469616C697A65642E000338FDD87A
:10C754007047303132333435363738394142434407
:10C7640045467077725F6D676D740000B8C402004F
:10C77400B8C4020004000000736F72746C697374AF
:10C78400004E52465F53554343455353004E524661
:10C794005F4552524F525F5356435F48414E444C9B
:10C7A40045525F4D495353494E47004E52465F45EB
:10C7B40052524F525F534F46544445564943455F86
:10C7C4004E4F545F454E41424C4544004E52465FE5
:10C7D4004552524F525F494E5445524E414C004EC1
:10C7E40052465F4552524F525F4E4F5F4D454D008A
:10C7F4004E52465F4552524F525F4E4F545F464F22
:10C80400554E44004E52465F4552524F525F4E4F72
:10C81400545F535550504F52544544004E52465F56
:10C824004552524F525F494E56414C49445F504124
:10C8340052414D004E52465F4552524F525F494E4F
:10C8440056414C49445F5354415445004E52465F4F
:10C854004552524F525F494E56414C49445F4C45F4
:10C864004E475448004E52465F4552524F525F491C
:10C874004E56414C49445F464C414753004E524644
:10C884005F4552524F525F494E56414C49445F44B2
:10C89400415441004E52465F4552524F525F44410B
:10C8A40054415F53495A45004E52465F4552524FD8
:10C8B400525F54494D454F5554004E52465F4552C0
:10C8C400524F525F4E554C4C004E52465F455252A9
:10C8D4004F525F464F5242494444454E004E5246E1
:10C8E4005F4552524F525F494E56414C49445F4155
:10C8F400444452004E52465F4552524F525F425595
:10C904005359004E52465F4552524F525F434F4E69
:10C914004E5F434F554E54004E52465F4552524F60
:10C92400525F5245534F5552434553004E52465F52
:10C934004552524F525F4D4F44554C455F4E4F54F4
:10C944005F494E495449414C495A4544004E524668
:10C954005F4552524F525F4D555445585F494E49B9
:10C96400545F4641494C4544004E52465F4552523D
:10C974004F525F4D555445585F4C4F434B5F4641B2
:10C98400494C4544004E52465F4552524F525F4D0A
:10C99400555445585F554E4C4F434B5F4641494CA7
:10C9A4004544004E52465F4552524F525F4D5554D6
:10C9B40045585F434F4E445F494E49545F46414991
:10C9C4004C4544004E52465F4552524F525F4D4FC4
:10C9D40044554C455F414C52454144595F494E4989
:10C9E4005449414C495A4544004E52465F455252BF
:10C9F4004F525F53544F524147455F46554C4C008C
:10CA04004E52465F4552524F525F4150495F4E4F1E
:10CA1400545F494D504C454D454E544544004E528B
:10CA2400465F4552524F525F464541545552455F09
:10CA34004E4F545F454E41424C4544004E52465F72
:10CA44004552524F525F494F5F50454E44494E47FD
:10CA5400004E52465F4552524F525F4452565F5405
:10CA640057495F4552525F4F56455252554E004EFC
:10CA740052465F4552524F525F4452565F54574993
:10CA84005F4552525F414E41434B004E52465F4513
:10CA940052524F525F4452565F5457495F45525267
:10CAA4005F444E41434B004E52465F4552524F52F3
:10CAB4005F424C455F495053505F52585F504B544E
:10CAC4005F5452554E4341544544004E52465F45CF
:10CAD40052524F525F424C455F495053505F434856
:10CAE400414E4E454C5F414C52454144595F455877
:10CAF40049535453004E52465F4552524F525F427F
:10CB04004C455F495053505F4C494E4B5F44495329
:10CB1400434F4E4E4543544544004E52465F4552A2
:10CB2400524F525F424C455F495053505F50454508
:10CB3400525F52454A454354454400556E6B6E6FEF
:10CB4400776E206572726F7220636F6465000000F7
:10CB54000000000085C702000100000091C7020028
:10CB640002000000AFC7020003000000D0C70200AB
:10CB740004000000E3C7020005000000F4C702003F
:10CB84000600000008C802000700000020C80200D8
:10CB94000800000038C802000900000050C8020064
:10CBA4000A00000069C802000B00000081C80200EE
:10CBB4000C00000098C802000D000000ACC8020080
:10CBC4000E000000BEC802000F000000CDC8020025
:10CBD40010000000E1C8020011000000F8C80200C3
:10CBE4001200000007C90200130000001CC9020063
:10CBF4008000000030C902008100000051C9020019
:10CC0400820000006DC902008300000089C902008F
:10CC140084000000A7C9020085000000C8C9020002
:10CC240086000000EDC902009000000004CA020062
:10CC34009100000022CA02009200000040CA0200D3
:10CC44000082000055CA02000182000073CA02007B
:10CC5400028200008FCA020000840000ABCA0200F6
:10CC640001840000CFCA020002840000F9CA020055
:10CC7400038400001ECB0200010000000D0E0F1003
:10CC8400636C6F636B00434C4F434B004750494FF9
:10CC9400544500505253005541525400554152548A
:10CCA4004500436F6E6E65637465642E004469735A
:10CCB400636F6E6E65637465642E004C4253207717
:10CCC40072697465204C4544207374617465202531
:10CCD40064004C454420427574746F6E2073657211
:10CCE4007669636520646973636F76657265642031
:10CCF4006F6E20636F6E6E5F68616E646C6520306A
:10CD04007825782E00427574746F6E207374617484
:10CD140065206368616E676564206F6E2070656569
:10CD24007220746F20307825782E00426C696E6B07
:10CD3400792043454E5452414C206578616D706CA6
:10CD44006520737461727465642E00004C2D00209C
:10CD5400AC2C0020040000002000000001000000B2
:10CD64004E6F726469635F426C696E6B79004E6FDB
:10CD74007420656E6F7567682073706163652066E3
:10CD84006F722073657276696365732E00496E63F2
:10CD9400726561736520424C455F44425F44495368
:10CDA400434F564552595F4D41585F535256207474
:10CDB4006F2062652061626C6520746F2073746FEC
:10CDC4007265206D6F726520736572766963657331
:10CDD40021004E6F7420656E6F75676820737061F3
:10CDE400636520666F722063686172616374657243
:10CDF400697374696373206173736F6369617465C4
:10CE0400642077697468207365727669636520307D
:10CE14007825303458202100496E6372656173654A
:10CE240020424C455F474154545F44425F4D415852
:10CE34005F434841525320746F2062652061626CE5
:10CE44006520746F2073746F7265206D6F72652036
:10CE54006368617261637465726973746963732072
:10CE6400666F7220656163682073657276696365B5
:10CE74002100626C655F64625F646973630073645C
:10CE84005F626C655F6761705F646174615F6C654C
:10CE94006E6774685F7570646174652829202872F0
:10CEA40065717565737429206F6E20636F6E6E658E
:10CEB4006374696F6E20307825782072657475729A
:10CEC4006E65642025732E00546865207265717543
:10CED40065737465642054582F5258207061636BD5
:10CEE4006574206C656E67746820697320746F6F55
:10CEF400206C6F6E672062792025752F2575206F51
:10CF040063746574732E0054686520726571756569
:10CF14007374656420636F6D62696E6174696F6EAA
:10CF2400206F6620545820616E642052582070612E
:10CF3400636B6574206C656E677468732069732015
:10CF4400746F6F206C6F6E67206279202575206D79
:10CF54006963726F7365636F6E64732E0073645FCD
:10CF6400626C655F67617474635F65786368616E42
:10CF740067655F6D74755F72657175657374282973
:10CF84002072657475726E65642025732E00736457
:10CF94005F626C655F67617474735F657863686111
:10CFA4006E67655F6D74755F7265706C7928292092
:10CFB40072657475726E65642025732E006E7266D8
:10CFC4005F626C655F676174740053442047415429
:10CFD400542070726F636564757265202825642916
:10CFE400206661696C6564206F6E20636F6E6E6588
:10CFF4006374696F6E2068616E646C6520256420BB
:10D0040077697468206572726F723A2030782530BF
:10D0140038582E00556E696D706C656D656E74655B
:10D024006420474154542052657175657374006ED1
:10D0340072665F626C655F6771000000000000004B
:10D044008DB4020000000000000000000000000099
:10D0540053B4020073645F626C655F6761705F73F1
:10D0640063616E5F73746172742072657475726E3D
:10D074006564203078257800626C655F7363616E47
:10D0840000626C655F6C62735F630023D1BCEA5F0E
:10D09400782315DEEF1212000000006E72665F73D3
:10D0A40064680001000007008CC502008CC5020002
:10D0B4000800000094C50200A4C502000800000096
:10D0C4008CC5020094C502000800000073756363F8
:10D0D4006573730073645F626C655F6366675F7337
:10D0E400657428292072657475726E6564202573D1
:10D0F400207768656E20617474656D7074696E67FD
:10D1040020746F2073657420424C455F434F4E4E2C
:10D114005F4346475F4741502E0073645F626C650E
:10D124005F6366675F73657428292072657475721E
:10D134006E6564202573207768656E20617474655C
:10D144006D7074696E6720746F2073657420424C2F
:10D15400455F4741505F4346475F524F4C455F43ED
:10D164004F554E542E0073645F626C655F6366674F
:10D174005F73657428292072657475726E65642006
:10D184002573207768656E20617474656D707469A9
:10D194006E6720746F2073657420424C455F434F63
:10D1A4004D4D4F4E5F4346475F56535F5555494477
:10D1B4002E0073645F626C655F6366675F7365749A
:10D1C40028292072657475726E6564202573207732
:10D1D40068656E20617474656D7074696E6720741F
:10D1E4006F2073657420424C455F47415454535F2C
:10D1F4004346475F415454525F5441425F53495A36
:10D20400452E0073645F626C655F6366675F736578
:10D214007428292072657475726E656420257320E4
:10D224007768656E20617474656D7074696E6720CB
:10D23400746F2073657420424C455F4741545453C6
:10D244005F4346475F534552564943455F43484110
:10D254004E4745442E00496E737566666963696579
:10D264006E742052414D20616C6C6F63617465640F
:10D2740020666F722074686520536F667444657607
:10D284006963652E004368616E6765207468652074
:10D2940052414D207374617274206C6F63617469C0
:10D2A4006F6E2066726F6D203078257820746F2041
:10D2B400307825782E004D6178696D756D20524166
:10D2C4004D2073697A6520666F72206170706C6995
:10D2D400636174696F6E20697320307825782E003D
:10D2E40073645F626C655F656E61626C652829209A
:10D2F40072657475726E65642025732E006E726695
:10D304005F7364685F626C650000000078C40200AB
:10D31400B8C40200080000006E72665F7364685F40
:10D32400736F630070C4020078C402000800000038
:10D3340043000000504F5349580000002020202093
:10D344002020202020682828282820202020202071
:10D3540020202020202020202020202048101010D1
:10D3640010101010101010101010101084848484E9
:10D37400848484848484101010101010108181819E
:10D384008181810101010101010101010101010109
:10D39400010101010101011010101010108282829C
:10D3A40082828202020202020202020202020202D9
:10D3B40002020202020202101010102000070320D1
:10D3C40004170201085710408000000034D3020003
:10D3D40038D402004CD5020053756E004D6F6E00B8
:10D3E4005475650057656400546875004672690099
:10D3F40053617400000000004A616E0046656200DB
:10D404004D617200417072004D6179004A756E0081
:10D414004A756C0041756700536570004F63740072
:10D424004E6F76004465630000000000414D0050DB
:10D434004D00000070D502006CD502006CD50200CE
:10D444006CD502006CD502006CD502006CD50200CC
:10D454006CD502006CD502006CD50200FFFFFFFF03
:10D46400FFFFFFFFFFFFFFFFFFFF0000ACD4020040
:10D47400DCD30200E8D40200FCD3020030D4020062
:10D4840090D4020040D502009CD40200256D2F25C3
:10D49400642F257900000000256120256220256580
:10D4A400202554202559000053756E646179004D80
:10D4B4006F6E6461790054756573646179005765B2
:10D4C400646E65736461790054687572736461791C
:10D4D400004672696461790053617475726461799C
:10D4E400000000004A616E756172790046656272DF
:10D4F40075617279004D6172636800417072696C84
:10D50400004D6179004A756E65004A756C79004179
:10D5140075677573740053657074656D6265720028
:10D524004F63746F626572004E6F76656D626572EB
:10D5340000446563656D62657200000025483A2504
:10D544004D3A255300000000E9C1020005C2020063
:10D5540011C202001DC2020039C2020045C202000B
:0ED5640051C202005FC20200000000002E0053
:10D5740000000000002000400000000000200040E7
:10D584000000000000000000FF0000000010014047
:10D59400110004000090D0030B0003000DA702004B
:10D5A400010000000C1E002050CD020078C50200CE
:10D5B40064C50200FFFF000000000000000000003E
:10D5C4000000000000000000000000000000000057
:10D5D4000000000000000000000000000000000047
:10D5E4000000000000000000000000000000000037
:10D5F4000000000000000000000000000000000027
:10D884000000FFFF00000000000000000000000096
:10D894000000000000000000000000000000000084
:10D8A4000000000000000000000000000000000074
:10D8B4000000000000000000000000000000000064
:10D8C4000000000000000000000000000000000054
:10DB84000000000000000000D0D30200D0D3020047
:0CDB9400D0D30200D0D30200D0D3020096
:040000032000735D09
:00000001FF
